{
  "_format": "hh-sol-artifact-1",
  "contractName": "ExchangePartner",
  "sourceName": "contracts/ExchangePartner.sol",
  "abi": [
    {
      "inputs": [
        {
          "internalType": "string",
          "name": "_originPartnerName",
          "type": "string"
        },
        {
          "internalType": "string",
          "name": "_originProgramName",
          "type": "string"
        },
        {
          "internalType": "uint256",
          "name": "_redemptionRate",
          "type": "uint256"
        }
      ],
      "stateMutability": "nonpayable",
      "type": "constructor"
    },
    {
      "inputs": [
        {
          "internalType": "address",
          "name": "_destAddress",
          "type": "address"
        },
        {
          "internalType": "string",
          "name": "_destPartnerName",
          "type": "string"
        },
        {
          "internalType": "string",
          "name": "_destProgramName",
          "type": "string"
        }
      ],
      "name": "addPartner",
      "outputs": [],
      "stateMutability": "nonpayable",
      "type": "function"
    },
    {
      "inputs": [],
      "name": "originAddress",
      "outputs": [
        {
          "internalType": "address",
          "name": "",
          "type": "address"
        }
      ],
      "stateMutability": "view",
      "type": "function"
    },
    {
      "inputs": [],
      "name": "originPartnerName",
      "outputs": [
        {
          "internalType": "string",
          "name": "",
          "type": "string"
        }
      ],
      "stateMutability": "view",
      "type": "function"
    },
    {
      "inputs": [],
      "name": "originProgramName",
      "outputs": [
        {
          "internalType": "string",
          "name": "",
          "type": "string"
        }
      ],
      "stateMutability": "view",
      "type": "function"
    },
    {
      "inputs": [
        {
          "internalType": "uint256",
          "name": "",
          "type": "uint256"
        }
      ],
      "name": "partnersAddress",
      "outputs": [
        {
          "internalType": "address",
          "name": "",
          "type": "address"
        }
      ],
      "stateMutability": "view",
      "type": "function"
    },
    {
      "inputs": [],
      "name": "partnersLength",
      "outputs": [
        {
          "internalType": "uint256",
          "name": "",
          "type": "uint256"
        }
      ],
      "stateMutability": "view",
      "type": "function"
    },
    {
      "inputs": [
        {
          "internalType": "address",
          "name": "",
          "type": "address"
        }
      ],
      "name": "partnerships",
      "outputs": [
        {
          "internalType": "address",
          "name": "destAddress",
          "type": "address"
        },
        {
          "internalType": "string",
          "name": "destPartnerName",
          "type": "string"
        },
        {
          "internalType": "string",
          "name": "destProgramName",
          "type": "string"
        },
        {
          "internalType": "int256",
          "name": "originPoints",
          "type": "int256"
        },
        {
          "internalType": "int256",
          "name": "destPoints",
          "type": "int256"
        },
        {
          "internalType": "int256",
          "name": "amountDue",
          "type": "int256"
        },
        {
          "internalType": "bool",
          "name": "isRegistered",
          "type": "bool"
        }
      ],
      "stateMutability": "view",
      "type": "function"
    },
    {
      "inputs": [],
      "name": "redemptionRate",
      "outputs": [
        {
          "internalType": "uint256",
          "name": "",
          "type": "uint256"
        }
      ],
      "stateMutability": "view",
      "type": "function"
    },
    {
      "inputs": [
        {
          "internalType": "address",
          "name": "_destAddress",
          "type": "address"
        },
        {
          "internalType": "int256",
          "name": "_originPoints",
          "type": "int256"
        },
        {
          "internalType": "int256",
          "name": "_destPoints",
          "type": "int256"
        }
      ],
      "name": "updatePartnership",
      "outputs": [],
      "stateMutability": "nonpayable",
      "type": "function"
    },
    {
      "inputs": [
        {
          "internalType": "address",
          "name": "_destAddress",
          "type": "address"
        },
        {
          "internalType": "uint256",
          "name": "_destRedemptionRate",
          "type": "uint256"
        },
        {
          "internalType": "int256",
          "name": "_amountPaid",
          "type": "int256"
        }
      ],
      "name": "updatePayment",
      "outputs": [],
      "stateMutability": "nonpayable",
      "type": "function"
    }
  ],
  "bytecode": "0x60806040523480156200001157600080fd5b5060405162000e3238038062000e32833981016040819052620000349162000135565b600080546001600160a01b03191632179055600162000054848262000237565b50600262000063838262000237565b5060035550620003039050565b634e487b7160e01b600052604160045260246000fd5b600082601f8301126200009857600080fd5b81516001600160401b0380821115620000b557620000b562000070565b604051601f8301601f19908116603f01168101908282118183101715620000e057620000e062000070565b81604052838152602092508683858801011115620000fd57600080fd5b600091505b8382101562000121578582018301518183018401529082019062000102565b600093810190920192909252949350505050565b6000806000606084860312156200014b57600080fd5b83516001600160401b03808211156200016357600080fd5b620001718783880162000086565b945060208601519150808211156200018857600080fd5b50620001978682870162000086565b925050604084015190509250925092565b600181811c90821680620001bd57607f821691505b602082108103620001de57634e487b7160e01b600052602260045260246000fd5b50919050565b601f8211156200023257600081815260208120601f850160051c810160208610156200020d5750805b601f850160051c820191505b818110156200022e5782815560010162000219565b5050505b505050565b81516001600160401b0381111562000253576200025362000070565b6200026b81620002648454620001a8565b84620001e4565b602080601f831160018114620002a357600084156200028a5750858301515b600019600386901b1c1916600185901b1785556200022e565b600085815260208120601f198616915b82811015620002d457888601518255948401946001909101908401620002b3565b5085821015620002f35787850151600019600388901b60f8161c191681555b5050505050600190811b01905550565b610b1f80620003136000396000f3fe608060405234801561001057600080fd5b506004361061008e5760003560e01c80630d5893c61461009357806323836955146100c2578063540385a3146100d7578063669ef9ba146100ee5780639238ccbd14610103578063ab6748b414610116578063d0adcbae14610141578063d417f52514610154578063d56dc6921461015c578063e517fedd14610164575b600080fd5b6100a66100a1366004610656565b610177565b6040516100b997969594939291906106be565b60405180910390f35b6100d56100d03660046107bf565b6102d0565b005b6100e060035481565b6040519081526020016100b9565b6100f6610410565b6040516100b99190610832565b6100d5610111366004610845565b61049e565b610129610124366004610878565b610558565b6040516001600160a01b0390911681526020016100b9565b6100d561014f366004610845565b610582565b6005546100e0565b6100f661062d565b600054610129906001600160a01b031681565b600460205260009081526040902080546001820180546001600160a01b0390921692916101a390610891565b80601f01602080910402602001604051908101604052809291908181526020018280546101cf90610891565b801561021c5780601f106101f15761010080835404028352916020019161021c565b820191906000526020600020905b8154815290600101906020018083116101ff57829003601f168201915b50505050509080600201805461023190610891565b80601f016020809104026020016040519081016040528092919081815260200182805461025d90610891565b80156102aa5780601f1061027f576101008083540402835291602001916102aa565b820191906000526020600020905b81548152906001019060200180831161028d57829003601f168201915b505050506003830154600484015460058501546006909501549394919390925060ff1687565b6001600160a01b03831660009081526004602052604090206006015460ff1661040b576040805160e0810182526001600160a01b0385811680835260208084018781528486018790526000606086018190526080860181905260a08601819052600160c087018190529381526004909252949020835181546001600160a01b03191693169290921782559251919283929082019061036e9082610919565b50604082015160028201906103839082610919565b50606082015160038201556080820151600482015560a082015160058083019190915560c0909201516006909101805460ff191691151591909117905580546001810182556000919091527f036b6384b5eca791c62761152d0c79bb0604c104a5fb6f4eb0703f3154bb3db00180546001600160a01b0319166001600160a01b038616179055505b505050565b6001805461041d90610891565b80601f016020809104026020016040519081016040528092919081815260200182805461044990610891565b80156104965780601f1061046b57610100808354040283529160200191610496565b820191906000526020600020905b81548152906001019060200180831161047957829003601f168201915b505050505081565b6001600160a01b038316600090815260046020526040902060060154839060ff166104e45760405162461bcd60e51b81526004016104db906109d8565b60405180910390fd5b6001600160a01b038416600090815260046020526040812060038101805491928692610511908490610a33565b925050819055508281600401600082825461052c9190610a33565b9091555050600380549082015461054290610a5b565b61054c9190610a77565b60059091015550505050565b6005818154811061056857600080fd5b6000918252602090912001546001600160a01b0316905081565b6001600160a01b038316600090815260046020526040902060060154839060ff166105bf5760405162461bcd60e51b81526004016104db906109d8565b6001600160a01b0384166000908152600460205260408120600581018054919285926105ec908490610a33565b9091555050600354600582015461060290610a5b565b61060c9190610ab3565b60038201556005810154610621908590610ab3565b60049091015550505050565b6002805461041d90610891565b80356001600160a01b038116811461065157600080fd5b919050565b60006020828403121561066857600080fd5b6106718261063a565b9392505050565b6000815180845260005b8181101561069e57602081850181015186830182015201610682565b506000602082860101526020601f19601f83011685010191505092915050565b6001600160a01b038816815260e0602082018190526000906106e290830189610678565b82810360408401526106f48189610678565b9150508560608301528460808301528360a083015282151560c083015298975050505050505050565b634e487b7160e01b600052604160045260246000fd5b600082601f83011261074457600080fd5b81356001600160401b038082111561075e5761075e61071d565b604051601f8301601f19908116603f011681019082821181831017156107865761078661071d565b8160405283815286602085880101111561079f57600080fd5b836020870160208301376000602085830101528094505050505092915050565b6000806000606084860312156107d457600080fd5b6107dd8461063a565b925060208401356001600160401b03808211156107f957600080fd5b61080587838801610733565b9350604086013591508082111561081b57600080fd5b5061082886828701610733565b9150509250925092565b6020815260006106716020830184610678565b60008060006060848603121561085a57600080fd5b6108638461063a565b95602085013595506040909401359392505050565b60006020828403121561088a57600080fd5b5035919050565b600181811c908216806108a557607f821691505b6020821081036108c557634e487b7160e01b600052602260045260246000fd5b50919050565b601f82111561040b57600081815260208120601f850160051c810160208610156108f25750805b601f850160051c820191505b81811015610911578281556001016108fe565b505050505050565b81516001600160401b038111156109325761093261071d565b610946816109408454610891565b846108cb565b602080601f83116001811461097b57600084156109635750858301515b600019600386901b1c1916600185901b178555610911565b600085815260208120601f198616915b828110156109aa5788860151825594840194600190910190840161098b565b50858210156109c85787850151600019600388901b60f8161c191681555b5050505050600190811b01905550565b60208082526025908201527f506172746e65727368697020686173206e6f74206265656e2065737461626c6960408201526439b432b21760d91b606082015260800190565b634e487b7160e01b600052601160045260246000fd5b8082018281126000831280158216821582161715610a5357610a53610a1d565b505092915050565b6000600160ff1b8201610a7057610a70610a1d565b5060000390565b600082610a9457634e487b7160e01b600052601260045260246000fd5b600160ff1b821460001984141615610aae57610aae610a1d565b500590565b80820260008212600160ff1b84141615610acf57610acf610a1d565b8181058314821517610ae357610ae3610a1d565b9291505056fea26469706673582212209f78eb0a78d0991569f8ac315819be0762c575363fecdc346ededc6255f184d064736f6c63430008110033",
  "linkReferences": {},
  "deployedLinkReferences": {}
}