{
  "_format": "hh-sol-artifact-1",
  "contractName": "ExchangeMember",
  "sourceName": "contracts/ExchangeMember.sol",
  "abi": [
    {
      "inputs": [
        {
          "internalType": "string",
          "name": "_firstName",
          "type": "string"
        },
        {
          "internalType": "string",
          "name": "_lastName",
          "type": "string"
        }
      ],
      "stateMutability": "nonpayable",
      "type": "constructor"
    },
    {
      "inputs": [
        {
          "internalType": "address",
          "name": "_programAddress",
          "type": "address"
        },
        {
          "internalType": "uint256",
          "name": "_points",
          "type": "uint256"
        }
      ],
      "name": "addPoints",
      "outputs": [],
      "stateMutability": "nonpayable",
      "type": "function"
    },
    {
      "inputs": [
        {
          "internalType": "address",
          "name": "_programAddress",
          "type": "address"
        },
        {
          "internalType": "uint256",
          "name": "_points",
          "type": "uint256"
        }
      ],
      "name": "deductPoints",
      "outputs": [],
      "stateMutability": "nonpayable",
      "type": "function"
    },
    {
      "inputs": [],
      "name": "firstName",
      "outputs": [
        {
          "internalType": "string",
          "name": "",
          "type": "string"
        }
      ],
      "stateMutability": "view",
      "type": "function"
    },
    {
      "inputs": [
        {
          "internalType": "address",
          "name": "_programAddress",
          "type": "address"
        },
        {
          "internalType": "string",
          "name": "_programName",
          "type": "string"
        }
      ],
      "name": "initPoints",
      "outputs": [],
      "stateMutability": "nonpayable",
      "type": "function"
    },
    {
      "inputs": [],
      "name": "lastName",
      "outputs": [
        {
          "internalType": "string",
          "name": "",
          "type": "string"
        }
      ],
      "stateMutability": "view",
      "type": "function"
    },
    {
      "inputs": [],
      "name": "memberAddress",
      "outputs": [
        {
          "internalType": "address",
          "name": "",
          "type": "address"
        }
      ],
      "stateMutability": "view",
      "type": "function"
    },
    {
      "inputs": [
        {
          "internalType": "address",
          "name": "",
          "type": "address"
        }
      ],
      "name": "programPoints",
      "outputs": [
        {
          "internalType": "address",
          "name": "programAddress",
          "type": "address"
        },
        {
          "internalType": "string",
          "name": "programName",
          "type": "string"
        },
        {
          "internalType": "uint256",
          "name": "points",
          "type": "uint256"
        },
        {
          "internalType": "bool",
          "name": "isRegistered",
          "type": "bool"
        }
      ],
      "stateMutability": "view",
      "type": "function"
    },
    {
      "inputs": [
        {
          "internalType": "uint256",
          "name": "",
          "type": "uint256"
        }
      ],
      "name": "programPointsAddress",
      "outputs": [
        {
          "internalType": "address",
          "name": "",
          "type": "address"
        }
      ],
      "stateMutability": "view",
      "type": "function"
    },
    {
      "inputs": [],
      "name": "programsLength",
      "outputs": [
        {
          "internalType": "uint256",
          "name": "",
          "type": "uint256"
        }
      ],
      "stateMutability": "view",
      "type": "function"
    }
  ],
  "bytecode": "0x60806040523480156200001157600080fd5b5060405162000c9038038062000c90833981016040819052620000349162000131565b600080546001600160a01b0319163217905560016200005483826200022a565b5060026200006382826200022a565b505050620002f6565b634e487b7160e01b600052604160045260246000fd5b600082601f8301126200009457600080fd5b81516001600160401b0380821115620000b157620000b16200006c565b604051601f8301601f19908116603f01168101908282118183101715620000dc57620000dc6200006c565b81604052838152602092508683858801011115620000f957600080fd5b600091505b838210156200011d5785820183015181830184015290820190620000fe565b600093810190920192909252949350505050565b600080604083850312156200014557600080fd5b82516001600160401b03808211156200015d57600080fd5b6200016b8683870162000082565b935060208501519150808211156200018257600080fd5b50620001918582860162000082565b9150509250929050565b600181811c90821680620001b057607f821691505b602082108103620001d157634e487b7160e01b600052602260045260246000fd5b50919050565b601f8211156200022557600081815260208120601f850160051c81016020861015620002005750805b601f850160051c820191505b8181101562000221578281556001016200020c565b5050505b505050565b81516001600160401b038111156200024657620002466200006c565b6200025e816200025784546200019b565b84620001d7565b602080601f8311600181146200029657600084156200027d5750858301515b600019600386901b1c1916600185901b17855562000221565b600085815260208120601f198616915b82811015620002c757888601518255948401946001909101908401620002a6565b5085821015620002e65787850151600019600388901b60f8161c191681555b5050505050600190811b01905550565b61098a80620003066000396000f3fe608060405234801561001057600080fd5b50600436106100835760003560e01c80634589fe0c14610088578063507cd30f146100a65780639ab03dcb146100bb578063a83b589c146100c3578063b1252115146100d6578063bd7dc96a146100f9578063e2dad5c61461010c578063ec6a1fb114610137578063ecd6e01d1461014a575b600080fd5b61009061015b565b60405161009d91906105db565b60405180910390f35b6100b96100b4366004610611565b6101e9565b005b610090610265565b6100b96100d1366004610611565b610272565b6100e96100e436600461063b565b610357565b60405161009d9493929190610656565b6100b96101073660046106a8565b610416565b60005461011f906001600160a01b031681565b6040516001600160a01b03909116815260200161009d565b61011f610145366004610769565b61056b565b60045460405190815260200161009d565b6001805461016890610782565b80601f016020809104026020016040519081016040528092919081815260200182805461019490610782565b80156101e15780601f106101b6576101008083540402835291602001916101e1565b820191906000526020600020905b8154815290600101906020018083116101c457829003601f168201915b505050505081565b6001600160a01b03821660009081526003602081905260409091200154829060ff166102305760405162461bcd60e51b8152600401610227906107bc565b60405180910390fd5b6001600160a01b0383166000908152600360205260408120600201805484929061025b90849061081a565b9091555050505050565b6002805461016890610782565b6001600160a01b03821660009081526003602081905260409091200154829060ff166102b05760405162461bcd60e51b8152600401610227906107bc565b6001600160a01b03831660009081526003602052604090206002015482111561032c5760405162461bcd60e51b815260206004820152602860248201527f596f7520646f206e6f74206861766520656e6f75676820706f696e747320746f604482015267103232b23ab1ba1760c11b6064820152608401610227565b6001600160a01b0383166000908152600360205260408120600201805484929061025b908490610833565b600360205260009081526040902080546001820180546001600160a01b03909216929161038390610782565b80601f01602080910402602001604051908101604052809291908181526020018280546103af90610782565b80156103fc5780601f106103d1576101008083540402835291602001916103fc565b820191906000526020600020905b8154815290600101906020018083116103df57829003601f168201915b50505050600283015460039093015491929160ff16905084565b6001600160a01b0382166000908152600360208190526040909120015460ff161561048d5760405162461bcd60e51b815260206004820152602160248201527f50726f6772616d20706f696e747320616c726561647920696e697469617465646044820152601760f91b6064820152608401610227565b604080516080810182526001600160a01b03848116808352602080840186815260008587018190526001606087018190529381526003909252949020835181546001600160a01b0319169316929092178255925191929091908201906104f39082610895565b50604082015160028201556060909101516003909101805460ff191691151591909117905550600480546001810182556000919091527f8a35acfbc15ff81a39ae7d344fd709f28e8600b4aa8c65c6b64bfe7fe36bd19b0180546001600160a01b0319166001600160a01b0392909216919091179055565b6004818154811061057b57600080fd5b6000918252602090912001546001600160a01b0316905081565b6000815180845260005b818110156105bb5760208185018101518683018201520161059f565b506000602082860101526020601f19601f83011685010191505092915050565b6020815260006105ee6020830184610595565b9392505050565b80356001600160a01b038116811461060c57600080fd5b919050565b6000806040838503121561062457600080fd5b61062d836105f5565b946020939093013593505050565b60006020828403121561064d57600080fd5b6105ee826105f5565b6001600160a01b038516815260806020820181905260009061067a90830186610595565b60408301949094525090151560609091015292915050565b634e487b7160e01b600052604160045260246000fd5b600080604083850312156106bb57600080fd5b6106c4836105f5565b915060208301356001600160401b03808211156106e057600080fd5b818501915085601f8301126106f457600080fd5b81358181111561070657610706610692565b604051601f8201601f19908116603f0116810190838211818310171561072e5761072e610692565b8160405282815288602084870101111561074757600080fd5b8260208601602083013760006020848301015280955050505050509250929050565b60006020828403121561077b57600080fd5b5035919050565b600181811c9082168061079657607f821691505b6020821081036107b657634e487b7160e01b600052602260045260246000fd5b50919050565b60208082526028908201527f596f752068617665206e6f74206a6f696e656420746865206c6f79616c747920604082015267383937b3b930b69760c11b606082015260800190565b634e487b7160e01b600052601160045260246000fd5b8082018082111561082d5761082d610804565b92915050565b8181038181111561082d5761082d610804565b601f82111561089057600081815260208120601f850160051c8101602086101561086d5750805b601f850160051c820191505b8181101561088c57828155600101610879565b5050505b505050565b81516001600160401b038111156108ae576108ae610692565b6108c2816108bc8454610782565b84610846565b602080601f8311600181146108f757600084156108df5750858301515b600019600386901b1c1916600185901b17855561088c565b600085815260208120601f198616915b8281101561092657888601518255948401946001909101908401610907565b50858210156109445787850151600019600388901b60f8161c191681555b5050505050600190811b0190555056fea2646970667358221220553d778b91ee4c6ae2d3a4b8812466993f42c33e43a48a19adbbe10775bbc9c764736f6c63430008110033",
  "linkReferences": {},
  "deployedLinkReferences": {}
}