{
  "_format": "hh-sol-artifact-1",
  "contractName": "LoyaltyExchange",
  "sourceName": "contracts/LoyaltyExchange.sol",
  "abi": [
    {
      "inputs": [],
      "stateMutability": "nonpayable",
      "type": "constructor"
    },
    {
      "inputs": [
        {
          "internalType": "uint256",
          "name": "_transactionId",
          "type": "uint256"
        }
      ],
      "name": "approvePaymentTransaction",
      "outputs": [],
      "stateMutability": "nonpayable",
      "type": "function"
    },
    {
      "inputs": [
        {
          "internalType": "address",
          "name": "_destAddress",
          "type": "address"
        },
        {
          "internalType": "uint256",
          "name": "_amountPaid",
          "type": "uint256"
        }
      ],
      "name": "createPaymentTransaction",
      "outputs": [],
      "stateMutability": "nonpayable",
      "type": "function"
    },
    {
      "inputs": [
        {
          "internalType": "address",
          "name": "",
          "type": "address"
        }
      ],
      "name": "exchangeMembers",
      "outputs": [
        {
          "internalType": "contract ExchangeMember",
          "name": "",
          "type": "address"
        }
      ],
      "stateMutability": "view",
      "type": "function"
    },
    {
      "inputs": [
        {
          "internalType": "uint256",
          "name": "",
          "type": "uint256"
        }
      ],
      "name": "exchangeMembersAddress",
      "outputs": [
        {
          "internalType": "address",
          "name": "",
          "type": "address"
        }
      ],
      "stateMutability": "view",
      "type": "function"
    },
    {
      "inputs": [],
      "name": "exchangeMembersLength",
      "outputs": [
        {
          "internalType": "uint256",
          "name": "",
          "type": "uint256"
        }
      ],
      "stateMutability": "view",
      "type": "function"
    },
    {
      "inputs": [
        {
          "internalType": "address",
          "name": "",
          "type": "address"
        }
      ],
      "name": "exchangePartners",
      "outputs": [
        {
          "internalType": "contract ExchangePartner",
          "name": "",
          "type": "address"
        }
      ],
      "stateMutability": "view",
      "type": "function"
    },
    {
      "inputs": [
        {
          "internalType": "uint256",
          "name": "",
          "type": "uint256"
        }
      ],
      "name": "exchangePartnersAddress",
      "outputs": [
        {
          "internalType": "address",
          "name": "",
          "type": "address"
        }
      ],
      "stateMutability": "view",
      "type": "function"
    },
    {
      "inputs": [],
      "name": "exchangePartnersLength",
      "outputs": [
        {
          "internalType": "uint256",
          "name": "",
          "type": "uint256"
        }
      ],
      "stateMutability": "view",
      "type": "function"
    },
    {
      "inputs": [
        {
          "internalType": "address",
          "name": "_originAddress",
          "type": "address"
        },
        {
          "internalType": "address",
          "name": "_destAddress",
          "type": "address"
        },
        {
          "internalType": "uint256",
          "name": "_originPoints",
          "type": "uint256"
        }
      ],
      "name": "exchangePoints",
      "outputs": [],
      "stateMutability": "nonpayable",
      "type": "function"
    },
    {
      "inputs": [
        {
          "internalType": "uint256",
          "name": "",
          "type": "uint256"
        }
      ],
      "name": "exchangeTransactions",
      "outputs": [
        {
          "internalType": "uint256",
          "name": "transactionId",
          "type": "uint256"
        },
        {
          "internalType": "address",
          "name": "memberAddress",
          "type": "address"
        },
        {
          "internalType": "address",
          "name": "originAddress",
          "type": "address"
        },
        {
          "internalType": "address",
          "name": "destAddress",
          "type": "address"
        },
        {
          "internalType": "string",
          "name": "originProgramName",
          "type": "string"
        },
        {
          "internalType": "string",
          "name": "destProgramName",
          "type": "string"
        },
        {
          "internalType": "uint256",
          "name": "originPoints",
          "type": "uint256"
        },
        {
          "internalType": "uint256",
          "name": "destPoints",
          "type": "uint256"
        }
      ],
      "stateMutability": "view",
      "type": "function"
    },
    {
      "inputs": [
        {
          "internalType": "uint256",
          "name": "",
          "type": "uint256"
        }
      ],
      "name": "exchangeTransactionsInfo",
      "outputs": [
        {
          "internalType": "uint256",
          "name": "",
          "type": "uint256"
        }
      ],
      "stateMutability": "view",
      "type": "function"
    },
    {
      "inputs": [],
      "name": "exchangeTransactionsLength",
      "outputs": [
        {
          "internalType": "uint256",
          "name": "",
          "type": "uint256"
        }
      ],
      "stateMutability": "view",
      "type": "function"
    },
    {
      "inputs": [
        {
          "internalType": "address",
          "name": "_originAddress",
          "type": "address"
        },
        {
          "internalType": "address",
          "name": "_destAddress",
          "type": "address"
        },
        {
          "internalType": "uint256",
          "name": "_originPoints",
          "type": "uint256"
        }
      ],
      "name": "getDestPoints",
      "outputs": [
        {
          "internalType": "uint256",
          "name": "",
          "type": "uint256"
        }
      ],
      "stateMutability": "view",
      "type": "function"
    },
    {
      "inputs": [
        {
          "internalType": "uint256",
          "name": "_points",
          "type": "uint256"
        },
        {
          "internalType": "address",
          "name": "_memberAddress",
          "type": "address"
        }
      ],
      "name": "issuePoints",
      "outputs": [],
      "stateMutability": "nonpayable",
      "type": "function"
    },
    {
      "inputs": [
        {
          "internalType": "address",
          "name": "_issuerAddress",
          "type": "address"
        }
      ],
      "name": "joinLoyaltyProgram",
      "outputs": [],
      "stateMutability": "nonpayable",
      "type": "function"
    },
    {
      "inputs": [
        {
          "internalType": "address",
          "name": "",
          "type": "address"
        }
      ],
      "name": "loyaltyPrograms",
      "outputs": [
        {
          "internalType": "contract LoyaltyProgram",
          "name": "",
          "type": "address"
        }
      ],
      "stateMutability": "view",
      "type": "function"
    },
    {
      "inputs": [
        {
          "internalType": "uint256",
          "name": "",
          "type": "uint256"
        }
      ],
      "name": "loyaltyProgramsAddress",
      "outputs": [
        {
          "internalType": "address",
          "name": "",
          "type": "address"
        }
      ],
      "stateMutability": "view",
      "type": "function"
    },
    {
      "inputs": [],
      "name": "loyaltyProgramsLength",
      "outputs": [
        {
          "internalType": "uint256",
          "name": "",
          "type": "uint256"
        }
      ],
      "stateMutability": "view",
      "type": "function"
    },
    {
      "inputs": [],
      "name": "owner",
      "outputs": [
        {
          "internalType": "address",
          "name": "",
          "type": "address"
        }
      ],
      "stateMutability": "view",
      "type": "function"
    },
    {
      "inputs": [
        {
          "internalType": "uint256",
          "name": "",
          "type": "uint256"
        }
      ],
      "name": "paymentTransactions",
      "outputs": [
        {
          "internalType": "uint256",
          "name": "transactionId",
          "type": "uint256"
        },
        {
          "internalType": "address",
          "name": "payerAddress",
          "type": "address"
        },
        {
          "internalType": "address",
          "name": "payeeAddress",
          "type": "address"
        },
        {
          "internalType": "uint256",
          "name": "amountPaid",
          "type": "uint256"
        },
        {
          "internalType": "bool",
          "name": "isApproved",
          "type": "bool"
        }
      ],
      "stateMutability": "view",
      "type": "function"
    },
    {
      "inputs": [
        {
          "internalType": "uint256",
          "name": "",
          "type": "uint256"
        }
      ],
      "name": "paymentTransactionsInfo",
      "outputs": [
        {
          "internalType": "uint256",
          "name": "",
          "type": "uint256"
        }
      ],
      "stateMutability": "view",
      "type": "function"
    },
    {
      "inputs": [],
      "name": "paymentTransactionsLength",
      "outputs": [
        {
          "internalType": "uint256",
          "name": "",
          "type": "uint256"
        }
      ],
      "stateMutability": "view",
      "type": "function"
    },
    {
      "inputs": [
        {
          "internalType": "uint256",
          "name": "_points",
          "type": "uint256"
        },
        {
          "internalType": "address",
          "name": "_issuerAddress",
          "type": "address"
        }
      ],
      "name": "redeemPoints",
      "outputs": [],
      "stateMutability": "nonpayable",
      "type": "function"
    },
    {
      "inputs": [
        {
          "internalType": "string",
          "name": "_firstName",
          "type": "string"
        },
        {
          "internalType": "string",
          "name": "_lastName",
          "type": "string"
        }
      ],
      "name": "registerMember",
      "outputs": [],
      "stateMutability": "nonpayable",
      "type": "function"
    },
    {
      "inputs": [
        {
          "internalType": "string",
          "name": "_issuerName",
          "type": "string"
        },
        {
          "internalType": "string",
          "name": "_programName",
          "type": "string"
        },
        {
          "internalType": "uint256",
          "name": "_redemptionRate",
          "type": "uint256"
        }
      ],
      "name": "registerPartner",
      "outputs": [],
      "stateMutability": "nonpayable",
      "type": "function"
    }
  ],
  "bytecode": "0x60806040526000600155600060025534801561001a57600080fd5b50600080546001600160a01b03191633179055615ffb8061003c6000396000f3fe60806040523480156200001157600080fd5b50600436106200015f5760003560e01c8063a918080211620000ce578063a91808021462000266578063aed7a045146200027d578063b6f2f86a1462000294578063b8ac75ed14620002ab578063bb09685314620002d8578063bb493f961462000304578063c18d207a146200030d578063d8c062331462000393578063dc2f080214620003aa578063e203475e14620003c1578063e6f3045414620003d8578063ec2f56851462000404578063ff8b77ec146200043057600080fd5b80630b5e9e5714620001645780631991e590146200017b5780632a20cd1e14620001925780632b0a90bb14620001ab5780633e9f5ed014620001db578063490befc214620001f257806358dd8da31462000209578063612999491462000212578063707eb7ea146200021b57806386ac281714620002245780638da5cb5b146200023b57806390fef8ca146200024f575b600080fd5b6009545b6040519081526020015b60405180910390f35b620001686200018c36600462002763565b62000447565b620001a9620001a3366004620027a9565b620005df565b005b620001c2620001bc366004620027dc565b62000744565b6040516001600160a01b03909116815260200162000172565b620001a9620001ec366004620027f6565b6200076f565b6200016862000203366004620027dc565b62000cc8565b600b5462000168565b60085462000168565b600c5462000168565b620001a962000235366004620027dc565b62000cea565b600054620001c2906001600160a01b031681565b620001a962000260366004620028ec565b6200100d565b620001c262000277366004620027dc565b620012bd565b620001c26200028e366004620027dc565b620012ce565b62000168620002a5366004620027dc565b620012df565b620002c2620002bc366004620027dc565b620012f0565b60405162000172989796959493929190620029aa565b620001c2620002e9366004620027f6565b6004602052600090815260409020546001600160a01b031681565b600a5462000168565b6200035c6200031e366004620027dc565b6007602052600090815260409020805460018201546002830154600384015460049094015492936001600160a01b0392831693929091169160ff1685565b604080519586526001600160a01b039485166020870152929093169184019190915260608301521515608082015260a00162000172565b620001a9620003a436600462002a15565b62001461565b620001a9620003bb366004620027a9565b62001791565b620001a9620003d236600462002763565b62001939565b620001c2620003e9366004620027f6565b6003602052600090815260409020546001600160a01b031681565b620001c262000415366004620027f6565b6005602052600090815260409020546001600160a01b031681565b620001a96200044136600462002a88565b62002237565b6001600160a01b0380841660009081526003602052604081205490918591166200048e5760405162461bcd60e51b8152600401620004859062002ab7565b60405180910390fd5b6001600160a01b03808516600090815260036020526040902054859116620004ca5760405162461bcd60e51b8152600401620004859062002ab7565b6001600160a01b03808716600090815260036020908152604080832054898516845281842054825163540385a360e01b8152925191861695169392859263540385a392600480830193928290030181865afa1580156200052e573d6000803e3d6000fd5b505050506040513d601f19601f8201168201806040525081019062000554919062002b10565b87836001600160a01b031663540385a36040518163ffffffff1660e01b8152600401602060405180830381865afa15801562000594573d6000803e3d6000fd5b505050506040513d601f19601f82011682018060405250810190620005ba919062002b10565b620005c6919062002b40565b620005d2919062002b60565b9998505050505050505050565b326000818152600460205260409020546001600160a01b0316620006175760405162461bcd60e51b8152600401620004859062002b83565b6001600160a01b03808316600090815260036020526040902054839116620006535760405162461bcd60e51b8152600401620004859062002ab7565b6001600160a01b038381166000908152600360205260409081902054905163e92e92e760e01b815260048101879052911690819063e92e92e790602401600060405180830381600087803b158015620006ab57600080fd5b505af1158015620006c0573d6000803e3d6000fd5b505032600090815260046020819052604091829020549151632a0ed62760e21b81526001600160a01b03909216935083925063a83b589c91620007089189918b910162002bda565b600060405180830381600087803b1580156200072357600080fd5b505af115801562000738573d6000803e3d6000fd5b50505050505050505050565b600981815481106200075557600080fd5b6000918252602090912001546001600160a01b0316905081565b326000818152600460205260409020546001600160a01b0316620007a75760405162461bcd60e51b8152600401620004859062002b83565b6001600160a01b03808316600090815260036020526040902054839116620007e35760405162461bcd60e51b8152600401620004859062002ab7565b326000908152600460208181526040808420546001600160a01b038881168652600390935281852054825163de6b6c4f60e01b8152925191841695931693859363bd7dc96a938a93879363de6b6c4f9383820193909291908290030181865afa15801562000855573d6000803e3d6000fd5b505050506040513d6000823e601f3d908101601f191682016040526200087f919081019062002bf3565b6040518363ffffffff1660e01b81526004016200089e92919062002c72565b600060405180830381600087803b158015620008b957600080fd5b505af1158015620008ce573d6000803e3d6000fd5b50505050806001600160a01b03166390fef8ca836001600160a01b0316634589fe0c6040518163ffffffff1660e01b8152600401600060405180830381865afa15801562000920573d6000803e3d6000fd5b505050506040513d6000823e601f3d908101601f191682016040526200094a919081019062002bf3565b846001600160a01b0316639ab03dcb6040518163ffffffff1660e01b8152600401600060405180830381865afa15801562000989573d6000803e3d6000fd5b505050506040513d6000823e601f3d908101601f19168201604052620009b3919081019062002bf3565b6040518363ffffffff1660e01b8152600401620009d292919062002ca0565b600060405180830381600087803b158015620009ed57600080fd5b505af115801562000a02573d6000803e3d6000fd5b50505050806001600160a01b031663a63234e06040518163ffffffff1660e01b8152600401602060405180830381865afa15801562000a45573d6000803e3d6000fd5b505050506040513d601f19601f8201168201806040525081019062000a6b919062002cc9565b6001600160a01b0316826001600160a01b031663e2dad5c66040518163ffffffff1660e01b8152600401602060405180830381865afa15801562000ab3573d6000803e3d6000fd5b505050506040513d601f19601f8201168201806040525081019062000ad9919062002cc9565b6001600160a01b03167fce8783d05b5794dfcdc4c6f4dcb7b13b92cfe0591dfcdde4a3fadc59d6c9e973846001600160a01b0316634589fe0c6040518163ffffffff1660e01b8152600401600060405180830381865afa15801562000b42573d6000803e3d6000fd5b505050506040513d6000823e601f3d908101601f1916820160405262000b6c919081019062002bf3565b856001600160a01b0316639ab03dcb6040518163ffffffff1660e01b8152600401600060405180830381865afa15801562000bab573d6000803e3d6000fd5b505050506040513d6000823e601f3d908101601f1916820160405262000bd5919081019062002bf3565b856001600160a01b0316632e9868f86040518163ffffffff1660e01b8152600401600060405180830381865afa15801562000c14573d6000803e3d6000fd5b505050506040513d6000823e601f3d908101601f1916820160405262000c3e919081019062002bf3565b866001600160a01b031663de6b6c4f6040518163ffffffff1660e01b8152600401600060405180830381865afa15801562000c7d573d6000803e3d6000fd5b505050506040513d6000823e601f3d908101601f1916820160405262000ca7919081019062002bf3565b60405162000cb9949392919062002ce9565b60405180910390a35050505050565b600b818154811062000cd957600080fd5b600091825260209091200154905081565b326000818152600560205260409020546001600160a01b031662000d225760405162461bcd60e51b8152600401620004859062002d49565b60008281526007602052604090206004015460ff161562000d9d5760405162461bcd60e51b815260206004820152602e60248201527f5061796d656e74207472616e73616374696f6e2068617320616c72656164792060448201526d3132b2b71030b8383937bb32b21760911b606482015260840162000485565b60008281526007602090815260408083206004808201805460ff191660019081179091558201546001600160a01b03908116865260058552838620546002840154821680885296859020546003850154865163540385a360e01b8152965195989284169791909316959294879463d0adcbae94889363540385a3938284019391929091908290030181865afa15801562000e3b573d6000803e3d6000fd5b505050506040513d601f19601f8201168201806040525081019062000e61919062002b10565b62000e6c8562002da1565b6040518463ffffffff1660e01b815260040162000e8c9392919062002dc0565b600060405180830381600087803b15801562000ea757600080fd5b505af115801562000ebc573d6000803e3d6000fd5b50505050816001600160a01b031663d0adcbae8560010160009054906101000a90046001600160a01b0316856001600160a01b031663540385a36040518163ffffffff1660e01b8152600401602060405180830381865afa15801562000f26573d6000803e3d6000fd5b505050506040513d601f19601f8201168201806040525081019062000f4c919062002b10565b846040518463ffffffff1660e01b815260040162000f6d9392919062002dc0565b600060405180830381600087803b15801562000f8857600080fd5b505af115801562000f9d573d6000803e3d6000fd5b50505050600284015460018501548554600387015460048801546040805192835260ff909116151560208301526001600160a01b0394851694909316927f3eb0d5172069c95fcb3e74b06b51d5b2021549ac51159a1f4a753aad045826e9910160405180910390a4505050505050565b326000908152600460205260409020546001600160a01b0316156200109d576040805162461bcd60e51b81526020600482015260248101919091527f596f75206861766520616c72656164792072656769737465726564206173206160448201527f206d656d626572206f6e20746865206c6f79616c74792065786368616e67652e606482015260840162000485565b60008282604051620010af9062002720565b620010bc92919062002ca0565b604051809103906000f080158015620010d9573d6000803e3d6000fd5b5032600081815260046020818152604080842080546001600160a01b0388166001600160a01b031991821681179092556009805460018101825596527f6e1540171b6c0c960b71a7020d9f60077f6af931a8bbf590da0223dacf75c7af9095018054909516909517909355825163716d6ae360e11b81529251949550929363e2dad5c693838301939092908290030181865afa1580156200117e573d6000803e3d6000fd5b505050506040513d601f19601f82011682018060405250810190620011a4919062002cc9565b6001600160a01b03167f87a256f8861c7bbd7537eec8653a4a33e0f39fd0dd2d0354aa30e5e1880e8750826001600160a01b0316634589fe0c6040518163ffffffff1660e01b8152600401600060405180830381865afa1580156200120d573d6000803e3d6000fd5b505050506040513d6000823e601f3d908101601f1916820160405262001237919081019062002bf3565b836001600160a01b0316639ab03dcb6040518163ffffffff1660e01b8152600401600060405180830381865afa15801562001276573d6000803e3d6000fd5b505050506040513d6000823e601f3d908101601f19168201604052620012a0919081019062002bf3565b604051620012b092919062002ca0565b60405180910390a2505050565b600a81815481106200075557600080fd5b600881815481106200075557600080fd5b600c818154811062000cd957600080fd5b6006602052600090815260409020805460018201546002830154600384015460048501805494956001600160a01b03948516959385169490921692620013369062002de1565b80601f0160208091040260200160405190810160405280929190818152602001828054620013649062002de1565b8015620013b55780601f106200138957610100808354040283529160200191620013b5565b820191906000526020600020905b8154815290600101906020018083116200139757829003601f168201915b505050505090806005018054620013cc9062002de1565b80601f0160208091040260200160405190810160405280929190818152602001828054620013fa9062002de1565b80156200144b5780601f106200141f576101008083540402835291602001916200144b565b820191906000526020600020905b8154815290600101906020018083116200142d57829003601f168201915b5050505050908060060154908060070154905088565b326000908152600560205260409020546001600160a01b031615620014f95760405162461bcd60e51b815260206004820152604160248201527f596f75206861766520616c72656164792072656769737465726564206173206160448201527f20706172746e6572206f6e20746865206c6f79616c74792065786368616e67656064820152601760f91b608482015260a40162000485565b60008383836040516200150c906200272e565b6200151a9392919062002e1d565b604051809103906000f08015801562001537573d6000803e3d6000fd5b5032600081815260056020908152604080832080546001600160a01b0387166001600160a01b03199182168117909255600a805460018101825595527fc65a7bb8d6351c1cf70c95a316cc6a92839c986682d98bc35f958f4883f9d2a89094018054909416909417909255815163e517fedd60e01b81529151939450919263e517fedd926004808401939192918290030181865afa158015620015de573d6000803e3d6000fd5b505050506040513d601f19601f8201168201806040525081019062001604919062002cc9565b6001600160a01b03167f7bf06ae4370ba03e666aa654d7789e1f88e437a0e87524e69a14397c0251eff8826001600160a01b031663669ef9ba6040518163ffffffff1660e01b8152600401600060405180830381865afa1580156200166d573d6000803e3d6000fd5b505050506040513d6000823e601f3d908101601f1916820160405262001697919081019062002bf3565b836001600160a01b031663d56dc6926040518163ffffffff1660e01b8152600401600060405180830381865afa158015620016d6573d6000803e3d6000fd5b505050506040513d6000823e601f3d908101601f1916820160405262001700919081019062002bf3565b846001600160a01b031663540385a36040518163ffffffff1660e01b8152600401602060405180830381865afa1580156200173f573d6000803e3d6000fd5b505050506040513d601f19601f8201168201806040525081019062001765919062002b10565b604051620017769392919062002e1d565b60405180910390a26200178b848484620023e0565b50505050565b6001600160a01b03808216600090815260046020526040902054829116620017cd5760405162461bcd60e51b8152600401620004859062002b83565b326000818152600560205260409020546001600160a01b0316620018055760405162461bcd60e51b8152600401620004859062002d49565b326000818152600360205260409020546001600160a01b03166200183d5760405162461bcd60e51b8152600401620004859062002ab7565b3260009081526003602052604090819020549051636e17840160e11b8152600481018790526001600160a01b03868116602483015290911690819063dc2f080290604401600060405180830381600087803b1580156200189c57600080fd5b505af1158015620018b1573d6000803e3d6000fd5b5050506001600160a01b0380871660009081526004602081905260409182902054915163507cd30f60e01b8152919092169250829163507cd30f91620018fc9132918c910162002bda565b600060405180830381600087803b1580156200191757600080fd5b505af11580156200192c573d6000803e3d6000fd5b5050505050505050505050565b326000818152600460205260409020546001600160a01b0316620019715760405162461bcd60e51b8152600401620004859062002b83565b6001600160a01b03808516600090815260036020526040902054859116620019ad5760405162461bcd60e51b8152600401620004859062002ab7565b6001600160a01b03808516600090815260036020526040902054859116620019e95760405162461bcd60e51b8152600401620004859062002ab7565b6001600160a01b038087166000908152600360205260408082205488841683529082205490831692169062001a2089898962000447565b90506001600160a01b03831663270c14dc62001a3c8962002da1565b6040518263ffffffff1660e01b815260040162001a5b91815260200190565b600060405180830381600087803b15801562001a7657600080fd5b505af115801562001a8b573d6000803e3d6000fd5b50506040516309c3053760e21b8152600481018490526001600160a01b038516925063270c14dc9150602401600060405180830381600087803b15801562001ad257600080fd5b505af115801562001ae7573d6000803e3d6000fd5b50503260009081526004602081905260409182902054915163507cd30f60e01b81526001600160a01b03909216935083925063507cd30f9162001b2f918d9187910162002bda565b600060405180830381600087803b15801562001b4a57600080fd5b505af115801562001b5f573d6000803e3d6000fd5b5050604051632a0ed62760e21b81526001600160a01b038416925063a83b589c915062001b93908d908c9060040162002bda565b600060405180830381600087803b15801562001bae57600080fd5b505af115801562001bc3573d6000803e3d6000fd5b5050505060006040518061010001604052806001548152602001326001600160a01b031681526020018c6001600160a01b031681526020018b6001600160a01b03168152602001866001600160a01b031663de6b6c4f6040518163ffffffff1660e01b8152600401600060405180830381865afa15801562001c49573d6000803e3d6000fd5b505050506040513d6000823e601f3d908101601f1916820160405262001c73919081019062002bf3565b8152602001856001600160a01b031663de6b6c4f6040518163ffffffff1660e01b8152600401600060405180830381865afa15801562001cb7573d6000803e3d6000fd5b505050506040513d6000823e601f3d908101601f1916820160405262001ce1919081019062002bf3565b815260208082018c9052604091820186905260018054600090815260068352839020845181559184015190820180546001600160a01b03199081166001600160a01b0393841617909155928401516002830180548516918316919091179055606084015160038301805490941691161790915560808201519192508291600482019062001d6f908262002eaa565b5060a0820151600582019062001d86908262002eaa565b5060c082810151600683015560e09283015160079092019190915560018054600b805492830181556000527f0175b7a638427703f0dbe7bb9bbf987a2551717b34e79f33b5b1008d1fa01db990910155602083015183516040808601516060870151608088015160a0890151968901519789015193516001600160a01b039096169794967f6eb705816e4b6e2a76d9e2d24027730d17a025e8f8811b5bd64186f1a1803a519662001e41969495939492939192919062002f76565b60405180910390a36001805490600062001e5b8362002fce565b91905055506000600560008d6001600160a01b03166001600160a01b0316815260200190815260200160002060009054906101000a90046001600160a01b031690506000600560008d6001600160a01b03166001600160a01b0316815260200190815260200160002060009054906101000a90046001600160a01b03169050816001600160a01b031663238369558d886001600160a01b0316632e9868f86040518163ffffffff1660e01b8152600401600060405180830381865afa15801562001f29573d6000803e3d6000fd5b505050506040513d6000823e601f3d908101601f1916820160405262001f53919081019062002bf3565b896001600160a01b031663de6b6c4f6040518163ffffffff1660e01b8152600401600060405180830381865afa15801562001f92573d6000803e3d6000fd5b505050506040513d6000823e601f3d908101601f1916820160405262001fbc919081019062002bf3565b6040518463ffffffff1660e01b815260040162001fdc9392919062002fea565b600060405180830381600087803b15801562001ff757600080fd5b505af11580156200200c573d6000803e3d6000fd5b50505050806001600160a01b031663238369558e896001600160a01b0316632e9868f86040518163ffffffff1660e01b8152600401600060405180830381865afa1580156200205f573d6000803e3d6000fd5b505050506040513d6000823e601f3d908101601f1916820160405262002089919081019062002bf3565b8a6001600160a01b031663de6b6c4f6040518163ffffffff1660e01b8152600401600060405180830381865afa158015620020c8573d6000803e3d6000fd5b505050506040513d6000823e601f3d908101601f19168201604052620020f2919081019062002bf3565b6040518463ffffffff1660e01b8152600401620021129392919062002fea565b600060405180830381600087803b1580156200212d57600080fd5b505af115801562002142573d6000803e3d6000fd5b50505050816001600160a01b0316639238ccbd8d8d620021629062002da1565b886040518463ffffffff1660e01b8152600401620021839392919062002dc0565b600060405180830381600087803b1580156200219e57600080fd5b505af1158015620021b3573d6000803e3d6000fd5b50505050806001600160a01b0316639238ccbd8e878e620021d49062002da1565b6040518463ffffffff1660e01b8152600401620021f49392919062002dc0565b600060405180830381600087803b1580156200220f57600080fd5b505af115801562002224573d6000803e3d6000fd5b5050505050505050505050505050505050565b326000818152600560205260409020546001600160a01b03166200226f5760405162461bcd60e51b8152600401620004859062002d49565b6001600160a01b03808416600090815260056020526040902054849116620022ab5760405162461bcd60e51b8152600401620004859062002d49565b6040805160a081018252600280548083523260208085019182526001600160a01b038a8116868801908152606087018b815260006080890181815296815260078552898120895181558651600180830180546001600160a01b03199081169389169390931790558551838c018054909316908816179091558351600383015588516004909201805460ff1916921515929092179091559754600c8054998a0181559091527fdf6966c971051c3d54ec59162606531493a51404a002842f56009d7e5cf4a8c79097019690965551925186519551945188519586521515928501929092529495918516941692917f3eb0d5172069c95fcb3e74b06b51d5b2021549ac51159a1f4a753aad045826e9910160405180910390a460028054906000620023d48362002fce565b91905055505050505050565b326000818152600560205260409020546001600160a01b0316620024185760405162461bcd60e51b8152600401620004859062002d49565b326000908152600360205260409020546001600160a01b031615620024945760405162461bcd60e51b815260206004820152602b60248201527f596f75206861766520616c726561647920637265617465642061206c6f79616c60448201526a3a3c90383937b3b930b69760a91b606482015260840162000485565b6000848484604051620024a7906200273c565b620024b59392919062002e1d565b604051809103906000f080158015620024d2573d6000803e3d6000fd5b5032600081815260036020908152604080832080546001600160a01b0387166001600160a01b031991821681179092556008805460018101825595527ff3f7a9fe364faab93b216da50a3214154f22a0a2b415b23a84c8169e8b636ee39094018054909416909417909255815163053191a760e51b81529151939450919263a63234e0926004808401939192918290030181865afa15801562002579573d6000803e3d6000fd5b505050506040513d601f19601f820116820180604052508101906200259f919062002cc9565b6001600160a01b03167f92f5e5a565bd4c4461783f7dcb762be8abf761f05e4c752b2f88cc41fdcc69a9826001600160a01b0316632e9868f86040518163ffffffff1660e01b8152600401600060405180830381865afa15801562002608573d6000803e3d6000fd5b505050506040513d6000823e601f3d908101601f1916820160405262002632919081019062002bf3565b836001600160a01b031663de6b6c4f6040518163ffffffff1660e01b8152600401600060405180830381865afa15801562002671573d6000803e3d6000fd5b505050506040513d6000823e601f3d908101601f191682016040526200269b919081019062002bf3565b846001600160a01b031663540385a36040518163ffffffff1660e01b8152600401602060405180830381865afa158015620026da573d6000803e3d6000fd5b505050506040513d601f19601f8201168201806040525081019062002700919062002b10565b604051620027119392919062002e1d565b60405180910390a25050505050565b610c90806200302f83390190565b610e328062003cbf83390190565b6114d58062004af183390190565b6001600160a01b03811681146200276057600080fd5b50565b6000806000606084860312156200277957600080fd5b833562002786816200274a565b9250602084013562002798816200274a565b929592945050506040919091013590565b60008060408385031215620027bd57600080fd5b823591506020830135620027d1816200274a565b809150509250929050565b600060208284031215620027ef57600080fd5b5035919050565b6000602082840312156200280957600080fd5b813562002816816200274a565b9392505050565b634e487b7160e01b600052604160045260246000fd5b604051601f8201601f191681016001600160401b03811182821017156200285e576200285e6200281d565b604052919050565b60006001600160401b038211156200288257620028826200281d565b50601f01601f191660200190565b600082601f830112620028a257600080fd5b8135620028b9620028b38262002866565b62002833565b818152846020838601011115620028cf57600080fd5b816020850160208301376000918101602001919091529392505050565b600080604083850312156200290057600080fd5b82356001600160401b03808211156200291857600080fd5b620029268683870162002890565b935060208501359150808211156200293d57600080fd5b506200294c8582860162002890565b9150509250929050565b60005b838110156200297357818101518382015260200162002959565b50506000910152565b600081518084526200299681602086016020860162002956565b601f01601f19169290920160200192915050565b8881526001600160a01b03888116602083015287811660408301528616606082015261010060808201819052600090620029e7838201886200297c565b905082810360a0840152620029fd81876200297c565b60c0840195909552505060e001529695505050505050565b60008060006060848603121562002a2b57600080fd5b83356001600160401b038082111562002a4357600080fd5b62002a518783880162002890565b9450602086013591508082111562002a6857600080fd5b5062002a778682870162002890565b925050604084013590509250925092565b6000806040838503121562002a9c57600080fd5b823562002aa9816200274a565b946020939093013593505050565b60208082526039908201527f4c6f79616c74792070726f6772616d206973206e6f742072656769737465726560408201527864206f6e20746865206c6f79616c74792065786368616e676560381b606082015260800190565b60006020828403121562002b2357600080fd5b5051919050565b634e487b7160e01b600052601160045260246000fd5b808202811582820484141762002b5a5762002b5a62002b2a565b92915050565b60008262002b7e57634e487b7160e01b600052601260045260246000fd5b500490565b60208082526037908201527f4d656d62657220686173206e6f74206265656e2072656769737465726564206f60408201527637103a3432903637bcb0b63a3c9032bc31b430b733b29760491b606082015260800190565b6001600160a01b03929092168252602082015260400190565b60006020828403121562002c0657600080fd5b81516001600160401b0381111562002c1d57600080fd5b8201601f8101841362002c2f57600080fd5b805162002c40620028b38262002866565b81815285602083850101111562002c5657600080fd5b62002c6982602083016020860162002956565b95945050505050565b6001600160a01b038316815260406020820181905260009062002c98908301846200297c565b949350505050565b60408152600062002cb560408301856200297c565b828103602084015262002c6981856200297c565b60006020828403121562002cdc57600080fd5b815162002816816200274a565b60808152600062002cfe60808301876200297c565b828103602084015262002d1281876200297c565b9050828103604084015262002d2881866200297c565b9050828103606084015262002d3e81856200297c565b979650505050505050565b60208082526038908201527f506172746e657220686173206e6f74206265656e20726567697374657265642060408201527737b7103a3432903637bcb0b63a3c9032bc31b430b733b29760411b606082015260800190565b6000600160ff1b820162002db95762002db962002b2a565b5060000390565b6001600160a01b039390931683526020830191909152604082015260600190565b600181811c9082168062002df657607f821691505b60208210810362002e1757634e487b7160e01b600052602260045260246000fd5b50919050565b60608152600062002e3260608301866200297c565b828103602084015262002e4681866200297c565b915050826040830152949350505050565b601f82111562002ea557600081815260208120601f850160051c8101602086101562002e805750805b601f850160051c820191505b8181101562002ea15782815560010162002e8c565b5050505b505050565b81516001600160401b0381111562002ec65762002ec66200281d565b62002ede8162002ed7845462002de1565b8462002e57565b602080601f83116001811462002f16576000841562002efd5750858301515b600019600386901b1c1916600185901b17855562002ea1565b600085815260208120601f198616915b8281101562002f475788860151825594840194600190910190840162002f26565b508582101562002f665787850151600019600388901b60f8161c191681555b5050505050600190811b01905550565b6001600160a01b0387811682528616602082015260c06040820181905260009062002fa4908301876200297c565b828103606084015262002fb881876200297c565b6080840195909552505060a00152949350505050565b60006001820162002fe35762002fe362002b2a565b5060010190565b6001600160a01b038416815260606020820181905260009062003010908301856200297c565b82810360408401526200302481856200297c565b969550505050505056fe60806040523480156200001157600080fd5b5060405162000c9038038062000c90833981016040819052620000349162000131565b600080546001600160a01b0319163217905560016200005483826200022a565b5060026200006382826200022a565b505050620002f6565b634e487b7160e01b600052604160045260246000fd5b600082601f8301126200009457600080fd5b81516001600160401b0380821115620000b157620000b16200006c565b604051601f8301601f19908116603f01168101908282118183101715620000dc57620000dc6200006c565b81604052838152602092508683858801011115620000f957600080fd5b600091505b838210156200011d5785820183015181830184015290820190620000fe565b600093810190920192909252949350505050565b600080604083850312156200014557600080fd5b82516001600160401b03808211156200015d57600080fd5b6200016b8683870162000082565b935060208501519150808211156200018257600080fd5b50620001918582860162000082565b9150509250929050565b600181811c90821680620001b057607f821691505b602082108103620001d157634e487b7160e01b600052602260045260246000fd5b50919050565b601f8211156200022557600081815260208120601f850160051c81016020861015620002005750805b601f850160051c820191505b8181101562000221578281556001016200020c565b5050505b505050565b81516001600160401b038111156200024657620002466200006c565b6200025e816200025784546200019b565b84620001d7565b602080601f8311600181146200029657600084156200027d5750858301515b600019600386901b1c1916600185901b17855562000221565b600085815260208120601f198616915b82811015620002c757888601518255948401946001909101908401620002a6565b5085821015620002e65787850151600019600388901b60f8161c191681555b5050505050600190811b01905550565b61098a80620003066000396000f3fe608060405234801561001057600080fd5b50600436106100835760003560e01c80634589fe0c14610088578063507cd30f146100a65780639ab03dcb146100bb578063a83b589c146100c3578063b1252115146100d6578063bd7dc96a146100f9578063e2dad5c61461010c578063ec6a1fb114610137578063ecd6e01d1461014a575b600080fd5b61009061015b565b60405161009d91906105db565b60405180910390f35b6100b96100b4366004610611565b6101e9565b005b610090610265565b6100b96100d1366004610611565b610272565b6100e96100e436600461063b565b610357565b60405161009d9493929190610656565b6100b96101073660046106a8565b610416565b60005461011f906001600160a01b031681565b6040516001600160a01b03909116815260200161009d565b61011f610145366004610769565b61056b565b60045460405190815260200161009d565b6001805461016890610782565b80601f016020809104026020016040519081016040528092919081815260200182805461019490610782565b80156101e15780601f106101b6576101008083540402835291602001916101e1565b820191906000526020600020905b8154815290600101906020018083116101c457829003601f168201915b505050505081565b6001600160a01b03821660009081526003602081905260409091200154829060ff166102305760405162461bcd60e51b8152600401610227906107bc565b60405180910390fd5b6001600160a01b0383166000908152600360205260408120600201805484929061025b90849061081a565b9091555050505050565b6002805461016890610782565b6001600160a01b03821660009081526003602081905260409091200154829060ff166102b05760405162461bcd60e51b8152600401610227906107bc565b6001600160a01b03831660009081526003602052604090206002015482111561032c5760405162461bcd60e51b815260206004820152602860248201527f596f7520646f206e6f74206861766520656e6f75676820706f696e747320746f604482015267103232b23ab1ba1760c11b6064820152608401610227565b6001600160a01b0383166000908152600360205260408120600201805484929061025b908490610833565b600360205260009081526040902080546001820180546001600160a01b03909216929161038390610782565b80601f01602080910402602001604051908101604052809291908181526020018280546103af90610782565b80156103fc5780601f106103d1576101008083540402835291602001916103fc565b820191906000526020600020905b8154815290600101906020018083116103df57829003601f168201915b50505050600283015460039093015491929160ff16905084565b6001600160a01b0382166000908152600360208190526040909120015460ff161561048d5760405162461bcd60e51b815260206004820152602160248201527f50726f6772616d20706f696e747320616c726561647920696e697469617465646044820152601760f91b6064820152608401610227565b604080516080810182526001600160a01b03848116808352602080840186815260008587018190526001606087018190529381526003909252949020835181546001600160a01b0319169316929092178255925191929091908201906104f39082610895565b50604082015160028201556060909101516003909101805460ff191691151591909117905550600480546001810182556000919091527f8a35acfbc15ff81a39ae7d344fd709f28e8600b4aa8c65c6b64bfe7fe36bd19b0180546001600160a01b0319166001600160a01b0392909216919091179055565b6004818154811061057b57600080fd5b6000918252602090912001546001600160a01b0316905081565b6000815180845260005b818110156105bb5760208185018101518683018201520161059f565b506000602082860101526020601f19601f83011685010191505092915050565b6020815260006105ee6020830184610595565b9392505050565b80356001600160a01b038116811461060c57600080fd5b919050565b6000806040838503121561062457600080fd5b61062d836105f5565b946020939093013593505050565b60006020828403121561064d57600080fd5b6105ee826105f5565b6001600160a01b038516815260806020820181905260009061067a90830186610595565b60408301949094525090151560609091015292915050565b634e487b7160e01b600052604160045260246000fd5b600080604083850312156106bb57600080fd5b6106c4836105f5565b915060208301356001600160401b03808211156106e057600080fd5b818501915085601f8301126106f457600080fd5b81358181111561070657610706610692565b604051601f8201601f19908116603f0116810190838211818310171561072e5761072e610692565b8160405282815288602084870101111561074757600080fd5b8260208601602083013760006020848301015280955050505050509250929050565b60006020828403121561077b57600080fd5b5035919050565b600181811c9082168061079657607f821691505b6020821081036107b657634e487b7160e01b600052602260045260246000fd5b50919050565b60208082526028908201527f596f752068617665206e6f74206a6f696e656420746865206c6f79616c747920604082015267383937b3b930b69760c11b606082015260800190565b634e487b7160e01b600052601160045260246000fd5b8082018082111561082d5761082d610804565b92915050565b8181038181111561082d5761082d610804565b601f82111561089057600081815260208120601f850160051c8101602086101561086d5750805b601f850160051c820191505b8181101561088c57828155600101610879565b5050505b505050565b81516001600160401b038111156108ae576108ae610692565b6108c2816108bc8454610782565b84610846565b602080601f8311600181146108f757600084156108df5750858301515b600019600386901b1c1916600185901b17855561088c565b600085815260208120601f198616915b8281101561092657888601518255948401946001909101908401610907565b50858210156109445787850151600019600388901b60f8161c191681555b5050505050600190811b0190555056fea2646970667358221220553d778b91ee4c6ae2d3a4b8812466993f42c33e43a48a19adbbe10775bbc9c764736f6c6343000811003360806040523480156200001157600080fd5b5060405162000e3238038062000e32833981016040819052620000349162000135565b600080546001600160a01b03191632179055600162000054848262000237565b50600262000063838262000237565b5060035550620003039050565b634e487b7160e01b600052604160045260246000fd5b600082601f8301126200009857600080fd5b81516001600160401b0380821115620000b557620000b562000070565b604051601f8301601f19908116603f01168101908282118183101715620000e057620000e062000070565b81604052838152602092508683858801011115620000fd57600080fd5b600091505b8382101562000121578582018301518183018401529082019062000102565b600093810190920192909252949350505050565b6000806000606084860312156200014b57600080fd5b83516001600160401b03808211156200016357600080fd5b620001718783880162000086565b945060208601519150808211156200018857600080fd5b50620001978682870162000086565b925050604084015190509250925092565b600181811c90821680620001bd57607f821691505b602082108103620001de57634e487b7160e01b600052602260045260246000fd5b50919050565b601f8211156200023257600081815260208120601f850160051c810160208610156200020d5750805b601f850160051c820191505b818110156200022e5782815560010162000219565b5050505b505050565b81516001600160401b0381111562000253576200025362000070565b6200026b81620002648454620001a8565b84620001e4565b602080601f831160018114620002a357600084156200028a5750858301515b600019600386901b1c1916600185901b1785556200022e565b600085815260208120601f198616915b82811015620002d457888601518255948401946001909101908401620002b3565b5085821015620002f35787850151600019600388901b60f8161c191681555b5050505050600190811b01905550565b610b1f80620003136000396000f3fe608060405234801561001057600080fd5b506004361061008e5760003560e01c80630d5893c61461009357806323836955146100c2578063540385a3146100d7578063669ef9ba146100ee5780639238ccbd14610103578063ab6748b414610116578063d0adcbae14610141578063d417f52514610154578063d56dc6921461015c578063e517fedd14610164575b600080fd5b6100a66100a1366004610656565b610177565b6040516100b997969594939291906106be565b60405180910390f35b6100d56100d03660046107bf565b6102d0565b005b6100e060035481565b6040519081526020016100b9565b6100f6610410565b6040516100b99190610832565b6100d5610111366004610845565b61049e565b610129610124366004610878565b610558565b6040516001600160a01b0390911681526020016100b9565b6100d561014f366004610845565b610582565b6005546100e0565b6100f661062d565b600054610129906001600160a01b031681565b600460205260009081526040902080546001820180546001600160a01b0390921692916101a390610891565b80601f01602080910402602001604051908101604052809291908181526020018280546101cf90610891565b801561021c5780601f106101f15761010080835404028352916020019161021c565b820191906000526020600020905b8154815290600101906020018083116101ff57829003601f168201915b50505050509080600201805461023190610891565b80601f016020809104026020016040519081016040528092919081815260200182805461025d90610891565b80156102aa5780601f1061027f576101008083540402835291602001916102aa565b820191906000526020600020905b81548152906001019060200180831161028d57829003601f168201915b505050506003830154600484015460058501546006909501549394919390925060ff1687565b6001600160a01b03831660009081526004602052604090206006015460ff1661040b576040805160e0810182526001600160a01b0385811680835260208084018781528486018790526000606086018190526080860181905260a08601819052600160c087018190529381526004909252949020835181546001600160a01b03191693169290921782559251919283929082019061036e9082610919565b50604082015160028201906103839082610919565b50606082015160038201556080820151600482015560a082015160058083019190915560c0909201516006909101805460ff191691151591909117905580546001810182556000919091527f036b6384b5eca791c62761152d0c79bb0604c104a5fb6f4eb0703f3154bb3db00180546001600160a01b0319166001600160a01b038616179055505b505050565b6001805461041d90610891565b80601f016020809104026020016040519081016040528092919081815260200182805461044990610891565b80156104965780601f1061046b57610100808354040283529160200191610496565b820191906000526020600020905b81548152906001019060200180831161047957829003601f168201915b505050505081565b6001600160a01b038316600090815260046020526040902060060154839060ff166104e45760405162461bcd60e51b81526004016104db906109d8565b60405180910390fd5b6001600160a01b038416600090815260046020526040812060038101805491928692610511908490610a33565b925050819055508281600401600082825461052c9190610a33565b9091555050600380549082015461054290610a5b565b61054c9190610a77565b60059091015550505050565b6005818154811061056857600080fd5b6000918252602090912001546001600160a01b0316905081565b6001600160a01b038316600090815260046020526040902060060154839060ff166105bf5760405162461bcd60e51b81526004016104db906109d8565b6001600160a01b0384166000908152600460205260408120600581018054919285926105ec908490610a33565b9091555050600354600582015461060290610a5b565b61060c9190610ab3565b60038201556005810154610621908590610ab3565b60049091015550505050565b6002805461041d90610891565b80356001600160a01b038116811461065157600080fd5b919050565b60006020828403121561066857600080fd5b6106718261063a565b9392505050565b6000815180845260005b8181101561069e57602081850181015186830182015201610682565b506000602082860101526020601f19601f83011685010191505092915050565b6001600160a01b038816815260e0602082018190526000906106e290830189610678565b82810360408401526106f48189610678565b9150508560608301528460808301528360a083015282151560c083015298975050505050505050565b634e487b7160e01b600052604160045260246000fd5b600082601f83011261074457600080fd5b81356001600160401b038082111561075e5761075e61071d565b604051601f8301601f19908116603f011681019082821181831017156107865761078661071d565b8160405283815286602085880101111561079f57600080fd5b836020870160208301376000602085830101528094505050505092915050565b6000806000606084860312156107d457600080fd5b6107dd8461063a565b925060208401356001600160401b03808211156107f957600080fd5b61080587838801610733565b9350604086013591508082111561081b57600080fd5b5061082886828701610733565b9150509250925092565b6020815260006106716020830184610678565b60008060006060848603121561085a57600080fd5b6108638461063a565b95602085013595506040909401359392505050565b60006020828403121561088a57600080fd5b5035919050565b600181811c908216806108a557607f821691505b6020821081036108c557634e487b7160e01b600052602260045260246000fd5b50919050565b601f82111561040b57600081815260208120601f850160051c810160208610156108f25750805b601f850160051c820191505b81811015610911578281556001016108fe565b505050505050565b81516001600160401b038111156109325761093261071d565b610946816109408454610891565b846108cb565b602080601f83116001811461097b57600084156109635750858301515b600019600386901b1c1916600185901b178555610911565b600085815260208120601f198616915b828110156109aa5788860151825594840194600190910190840161098b565b50858210156109c85787850151600019600388901b60f8161c191681555b5050505050600190811b01905550565b60208082526025908201527f506172746e65727368697020686173206e6f74206265656e2065737461626c6960408201526439b432b21760d91b606082015260800190565b634e487b7160e01b600052601160045260246000fd5b8082018281126000831280158216821582161715610a5357610a53610a1d565b505092915050565b6000600160ff1b8201610a7057610a70610a1d565b5060000390565b600082610a9457634e487b7160e01b600052601260045260246000fd5b600160ff1b821460001984141615610aae57610aae610a1d565b500590565b80820260008212600160ff1b84141615610acf57610acf610a1d565b8181058314821517610ae357610ae3610a1d565b9291505056fea26469706673582212209f78eb0a78d0991569f8ac315819be0762c575363fecdc346ededc6255f184d064736f6c6343000811003360806040526000600455600060055560006006553480156200002057600080fd5b50604051620014d5380380620014d5833981016040819052620000439162000144565b600080546001600160a01b03191632179055600162000063848262000246565b50600262000072838262000246565b5060035550620003129050565b634e487b7160e01b600052604160045260246000fd5b600082601f830112620000a757600080fd5b81516001600160401b0380821115620000c457620000c46200007f565b604051601f8301601f19908116603f01168101908282118183101715620000ef57620000ef6200007f565b816040528381526020925086838588010111156200010c57600080fd5b600091505b8382101562000130578582018301518183018401529082019062000111565b600093810190920192909252949350505050565b6000806000606084860312156200015a57600080fd5b83516001600160401b03808211156200017257600080fd5b620001808783880162000095565b945060208601519150808211156200019757600080fd5b50620001a68682870162000095565b925050604084015190509250925092565b600181811c90821680620001cc57607f821691505b602082108103620001ed57634e487b7160e01b600052602260045260246000fd5b50919050565b601f8211156200024157600081815260208120601f850160051c810160208610156200021c5750805b601f850160051c820191505b818110156200023d5782815560010162000228565b5050505b505050565b81516001600160401b038111156200026257620002626200007f565b6200027a81620002738454620001b7565b84620001f3565b602080601f831160018114620002b25760008415620002995750858301515b600019600386901b1c1916600185901b1785556200023d565b600085815260208120601f198616915b82811015620002e357888601518255948401946001909101908401620002c2565b5085821015620003025787850151600019600388901b60f8161c191681555b5050505050600190811b01905550565b6111b380620003226000396000f3fe608060405234801561001057600080fd5b50600436106100d05760003560e01c806308ae4b0c146100d55780630f027c6714610102578063270c14dc146101145780632e9868f814610129578063540385a31461013e578063567142be146101475780635c616e7a14610150578063674c70991461017b5780638c32a0d31461019d57806390fef8ca146101a5578063a63234e0146101b8578063dc2f0802146101cb578063de6b6c4f146101de578063e92e92e7146101e6578063fa690beb146101f9578063fd1c881114610202575b600080fd5b6100e86100e3366004610c04565b61020b565b6040516100f9959493929190610c6c565b60405180910390f35b6008545b6040519081526020016100f9565b610127610122366004610cbc565b610358565b005b6101316105b8565b6040516100f99190610cd5565b61010660035481565b61010660045481565b61016361015e366004610cbc565b610646565b6040516001600160a01b0390911681526020016100f9565b61018e610189366004610cbc565b610670565b6040516100f993929190610cfe565b600954610106565b6101276101b3366004610ddf565b6106b3565b600054610163906001600160a01b031681565b6101276101d9366004610e42565b610823565b610131610a2e565b6101276101f4366004610cbc565b610a3b565b61010660065481565b61010660055481565b600760205260009081526040902080546001820180546001600160a01b03909216929161023790610e6e565b80601f016020809104026020016040519081016040528092919081815260200182805461026390610e6e565b80156102b05780601f10610285576101008083540402835291602001916102b0565b820191906000526020600020905b81548152906001019060200180831161029357829003601f168201915b5050505050908060020180546102c590610e6e565b80601f01602080910402602001604051908101604052809291908181526020018280546102f190610e6e565b801561033e5780601f106103135761010080835404028352916020019161033e565b820191906000526020600020905b81548152906001019060200180831161032157829003601f168201915b50505050600383015460049093015491929160ff16905085565b3260009081526007602052604090206004015460ff166103935760405162461bcd60e51b815260040161038a90610ea8565b60405180910390fd5b61039c81610ef5565b3260009081526007602052604090206003015412156104105760405162461bcd60e51b815260206004820152602a60248201527f596f75206861766520696e73756666696369656e7420706f696e747320666f726044820152691032bc31b430b733b29760b11b606482015260840161038a565b3260009081526007602052604090206003015461042d8282610f11565b32600081815260076020908152604080832060030185905580516060810182529384526002918401828152908401879052600980546001810182559352835192820260008051602061115e8339815191520180546001600160a01b039094166001600160a01b0319851681178255915185949193909284926001600160a81b0319161790600160a01b9084908111156104c8576104c8610ce8565b0217905550604082015181600101555050836004546104e79190610f11565b6004556000841215610518576104fc84610ef5565b6006600082825461050d9190610f39565b909155506105309050565b836005600082825461052a9190610f39565b90915550505b8060200151600281111561054657610546610ce8565b6000805432808352600760205260409283902085840151935191936001600160a01b03909316927fbaffff8f8621a0b119327aa1aac14e040e56d3763b2191a909c785be01b546b7926105aa9260019260029284830192840191908d908d90610fcf565b60405180910390a450505050565b600180546105c590610e6e565b80601f01602080910402602001604051908101604052809291908181526020018280546105f190610e6e565b801561063e5780601f106106135761010080835404028352916020019161063e565b820191906000526020600020905b81548152906001019060200180831161062157829003601f168201915b505050505081565b6008818154811061065657600080fd5b6000918252602090912001546001600160a01b0316905081565b6009818154811061068057600080fd5b6000918252602090912060029091020180546001909101546001600160a01b0382169250600160a01b90910460ff169083565b3260009081526007602052604090206004015460ff16156107365760405162461bcd60e51b815260206004820152603760248201527f596f75206861766520616c7265616479207265676973746572656420617320616044820152761036b2b6b132b91037b3103a343290383937b3b930b69760491b606482015260840161038a565b6040805160a0810182523280825260208083018681528385018690526000606085018190526001608086018190529381526007909252939020825181546001600160a01b0319166001600160a01b0390911617815592519192839290918201906107a0908261108b565b50604082015160028201906107b5908261108b565b50606082015160038201556080909101516004909101805491151560ff199092169190911790555050600880546001810182556000919091527ff3f7a9fe364faab93b216da50a3214154f22a0a2b415b23a84c8169e8b636ee30180546001600160a01b0319163217905550565b6000546001600160a01b031632146108945760405162461bcd60e51b815260206004820152602e60248201527f4f6e6c792069737375657220697320616c6c6f77656420746f20706572666f7260448201526d36903a3434b99030b1ba34b7b71760911b606482015260840161038a565b6001600160a01b03811660009081526007602052604081206003018054918491906108bf8385610f39565b90915550506001600160a01b0382811660008181526007602090815260408083206003015481516060810183529485529184018381529084018890526009805460018101825593528351600293840260008051602061115e833981519152018054919096166001600160a01b031982168117875591519295859490939284926001600160a81b0319161790600160a01b90849081111561096157610961610ce8565b021790555060408201518160010155505084600460008282546109849190610f39565b92505081905550846005600082825461099d9190610f39565b9091555050602081015160028111156109b8576109b8610ce8565b600080546001600160a01b038781168084526007602052604093849020868501519451919492909316927fbaffff8f8621a0b119327aa1aac14e040e56d3763b2191a909c785be01b546b792610a1f9260019260029284820192918401918d908d90610fcf565b60405180910390a45050505050565b600280546105c590610e6e565b3260009081526007602052604090206004015460ff16610a6d5760405162461bcd60e51b815260040161038a90610ea8565b32600090815260076020526040902060030154811115610ae45760405162461bcd60e51b815260206004820152602c60248201527f596f75206861766520696e73756666696369656e7420706f696e747320666f7260448201526b103932b232b6b83a34b7b71760a11b606482015260840161038a565b326000908152600760205260408120600301805491839190610b06838561114a565b90915550503260008181526007602090815260408083206003015481516060810183529485526001928501838152918501879052600980549384018155909352835160008051602061115e83398151915260029384020180546001600160a01b031981166001600160a01b039093169283178255925194959485949193909284926001600160a81b03199092161790600160a01b908490811115610bac57610bac610ce8565b02179055506040820151816001015550508360046000828254610bcf919061114a565b92505081905550836006600082825461052a9190610f39565b80356001600160a01b0381168114610bff57600080fd5b919050565b600060208284031215610c1657600080fd5b610c1f82610be8565b9392505050565b6000815180845260005b81811015610c4c57602081850181015186830182015201610c30565b506000602082860101526020601f19601f83011685010191505092915050565b6001600160a01b038616815260a060208201819052600090610c9090830187610c26565b8281036040840152610ca28187610c26565b606084019590955250509015156080909101529392505050565b600060208284031215610cce57600080fd5b5035919050565b602081526000610c1f6020830184610c26565b634e487b7160e01b600052602160045260246000fd5b6001600160a01b03841681526060810160038410610d2c57634e487b7160e01b600052602160045260246000fd5b602082019390935260400152919050565b634e487b7160e01b600052604160045260246000fd5b600082601f830112610d6457600080fd5b81356001600160401b0380821115610d7e57610d7e610d3d565b604051601f8301601f19908116603f01168101908282118183101715610da657610da6610d3d565b81604052838152866020858801011115610dbf57600080fd5b836020870160208301376000602085830101528094505050505092915050565b60008060408385031215610df257600080fd5b82356001600160401b0380821115610e0957600080fd5b610e1586838701610d53565b93506020850135915080821115610e2b57600080fd5b50610e3885828601610d53565b9150509250929050565b60008060408385031215610e5557600080fd5b82359150610e6560208401610be8565b90509250929050565b600181811c90821680610e8257607f821691505b602082108103610ea257634e487b7160e01b600052602260045260246000fd5b50919050565b6020808252601f908201527f53656e646572206e6f742072656769737465726564206173204d656d62657200604082015260600190565b634e487b7160e01b600052601160045260246000fd5b6000600160ff1b8201610f0a57610f0a610edf565b5060000390565b8082018281126000831280158216821582161715610f3157610f31610edf565b505092915050565b80820180821115610f4c57610f4c610edf565b92915050565b60008154610f5f81610e6e565b808552602060018381168015610f7c5760018114610f9657610fc4565b60ff1985168884015283151560051b880183019550610fc4565b866000528260002060005b85811015610fbc5781548a8201860152908301908401610fa1565b890184019650505b505050505092915050565b60e081526000610fe260e083018a610f52565b8281036020840152610ff4818a610f52565b905082810360408401526110088189610f52565b9050828103606084015261101c8188610f52565b6080840196909652505060a081019290925260c090910152949350505050565b601f82111561108657600081815260208120601f850160051c810160208610156110635750805b601f850160051c820191505b818110156110825782815560010161106f565b5050505b505050565b81516001600160401b038111156110a4576110a4610d3d565b6110b8816110b28454610e6e565b8461103c565b602080601f8311600181146110ed57600084156110d55750858301515b600019600386901b1c1916600185901b178555611082565b600085815260208120601f198616915b8281101561111c578886015182559484019460019091019084016110fd565b508582101561113a5787850151600019600388901b60f8161c191681555b5050505050600190811b01905550565b81810381811115610f4c57610f4c610edf56fe6e1540171b6c0c960b71a7020d9f60077f6af931a8bbf590da0223dacf75c7afa2646970667358221220a5c3ded21ebf704362d56dc0856af9e16df72ecd74fe8dc835f7b1ddd5efb7a564736f6c63430008110033a26469706673582212209cb55730a26feaaf552792a63e6cce494371530bd7c041662c3204a4e988157c64736f6c63430008110033",
  "linkReferences": {},
  "deployedLinkReferences": {}
}