{
  "_format": "hh-sol-artifact-1",
  "contractName": "LoyaltyProgram",
  "sourceName": "contracts/LoyaltyProgram.sol",
  "abi": [
    {
      "inputs": [
        {
          "internalType": "string",
          "name": "_issuerName",
          "type": "string"
        },
        {
          "internalType": "string",
          "name": "_programName",
          "type": "string"
        },
        {
          "internalType": "uint256",
          "name": "_redemptionRate",
          "type": "uint256"
        }
      ],
      "stateMutability": "nonpayable",
      "type": "constructor"
    },
    {
      "inputs": [
        {
          "internalType": "int256",
          "name": "_points",
          "type": "int256"
        }
      ],
      "name": "exchangePoints",
      "outputs": [],
      "stateMutability": "nonpayable",
      "type": "function"
    },
    {
      "inputs": [
        {
          "internalType": "uint256",
          "name": "_points",
          "type": "uint256"
        },
        {
          "internalType": "address",
          "name": "_memberAddress",
          "type": "address"
        }
      ],
      "name": "issuePoints",
      "outputs": [],
      "stateMutability": "nonpayable",
      "type": "function"
    },
    {
      "inputs": [],
      "name": "issuerAddress",
      "outputs": [
        {
          "internalType": "address",
          "name": "",
          "type": "address"
        }
      ],
      "stateMutability": "view",
      "type": "function"
    },
    {
      "inputs": [],
      "name": "issuerName",
      "outputs": [
        {
          "internalType": "string",
          "name": "",
          "type": "string"
        }
      ],
      "stateMutability": "view",
      "type": "function"
    },
    {
      "inputs": [
        {
          "internalType": "address",
          "name": "",
          "type": "address"
        }
      ],
      "name": "members",
      "outputs": [
        {
          "internalType": "address",
          "name": "memberAddress",
          "type": "address"
        },
        {
          "internalType": "string",
          "name": "firstName",
          "type": "string"
        },
        {
          "internalType": "string",
          "name": "lastName",
          "type": "string"
        },
        {
          "internalType": "uint256",
          "name": "points",
          "type": "uint256"
        },
        {
          "internalType": "bool",
          "name": "isRegistered",
          "type": "bool"
        }
      ],
      "stateMutability": "view",
      "type": "function"
    },
    {
      "inputs": [
        {
          "internalType": "uint256",
          "name": "",
          "type": "uint256"
        }
      ],
      "name": "membersAddress",
      "outputs": [
        {
          "internalType": "address",
          "name": "",
          "type": "address"
        }
      ],
      "stateMutability": "view",
      "type": "function"
    },
    {
      "inputs": [],
      "name": "membersLength",
      "outputs": [
        {
          "internalType": "uint256",
          "name": "",
          "type": "uint256"
        }
      ],
      "stateMutability": "view",
      "type": "function"
    },
    {
      "inputs": [],
      "name": "programName",
      "outputs": [
        {
          "internalType": "string",
          "name": "",
          "type": "string"
        }
      ],
      "stateMutability": "view",
      "type": "function"
    },
    {
      "inputs": [
        {
          "internalType": "uint256",
          "name": "_points",
          "type": "uint256"
        }
      ],
      "name": "redeemPoints",
      "outputs": [],
      "stateMutability": "nonpayable",
      "type": "function"
    },
    {
      "inputs": [],
      "name": "redemptionRate",
      "outputs": [
        {
          "internalType": "uint256",
          "name": "",
          "type": "uint256"
        }
      ],
      "stateMutability": "view",
      "type": "function"
    },
    {
      "inputs": [
        {
          "internalType": "string",
          "name": "_firstName",
          "type": "string"
        },
        {
          "internalType": "string",
          "name": "_lastName",
          "type": "string"
        }
      ],
      "name": "registerMember",
      "outputs": [],
      "stateMutability": "nonpayable",
      "type": "function"
    },
    {
      "inputs": [],
      "name": "totalPoints",
      "outputs": [
        {
          "internalType": "uint256",
          "name": "",
          "type": "uint256"
        }
      ],
      "stateMutability": "view",
      "type": "function"
    },
    {
      "inputs": [],
      "name": "totalPointsIssued",
      "outputs": [
        {
          "internalType": "uint256",
          "name": "",
          "type": "uint256"
        }
      ],
      "stateMutability": "view",
      "type": "function"
    },
    {
      "inputs": [],
      "name": "totalPointsRedeemed",
      "outputs": [
        {
          "internalType": "uint256",
          "name": "",
          "type": "uint256"
        }
      ],
      "stateMutability": "view",
      "type": "function"
    },
    {
      "inputs": [
        {
          "internalType": "uint256",
          "name": "",
          "type": "uint256"
        }
      ],
      "name": "transactionsInfo",
      "outputs": [
        {
          "internalType": "address",
          "name": "memberAddress",
          "type": "address"
        },
        {
          "internalType": "enum TransactionType",
          "name": "transactionType",
          "type": "uint8"
        },
        {
          "internalType": "int256",
          "name": "points",
          "type": "int256"
        }
      ],
      "stateMutability": "view",
      "type": "function"
    },
    {
      "inputs": [],
      "name": "transactionsLength",
      "outputs": [
        {
          "internalType": "uint256",
          "name": "",
          "type": "uint256"
        }
      ],
      "stateMutability": "view",
      "type": "function"
    }
  ],
  "bytecode": "0x60806040526000600455600060055560006006553480156200002057600080fd5b50604051620014d5380380620014d5833981016040819052620000439162000144565b600080546001600160a01b03191632179055600162000063848262000246565b50600262000072838262000246565b5060035550620003129050565b634e487b7160e01b600052604160045260246000fd5b600082601f830112620000a757600080fd5b81516001600160401b0380821115620000c457620000c46200007f565b604051601f8301601f19908116603f01168101908282118183101715620000ef57620000ef6200007f565b816040528381526020925086838588010111156200010c57600080fd5b600091505b8382101562000130578582018301518183018401529082019062000111565b600093810190920192909252949350505050565b6000806000606084860312156200015a57600080fd5b83516001600160401b03808211156200017257600080fd5b620001808783880162000095565b945060208601519150808211156200019757600080fd5b50620001a68682870162000095565b925050604084015190509250925092565b600181811c90821680620001cc57607f821691505b602082108103620001ed57634e487b7160e01b600052602260045260246000fd5b50919050565b601f8211156200024157600081815260208120601f850160051c810160208610156200021c5750805b601f850160051c820191505b818110156200023d5782815560010162000228565b5050505b505050565b81516001600160401b038111156200026257620002626200007f565b6200027a81620002738454620001b7565b84620001f3565b602080601f831160018114620002b25760008415620002995750858301515b600019600386901b1c1916600185901b1785556200023d565b600085815260208120601f198616915b82811015620002e357888601518255948401946001909101908401620002c2565b5085821015620003025787850151600019600388901b60f8161c191681555b5050505050600190811b01905550565b6111b380620003226000396000f3fe608060405234801561001057600080fd5b50600436106100d05760003560e01c806308ae4b0c146100d55780630f027c6714610102578063270c14dc146101145780632e9868f814610129578063540385a31461013e578063567142be146101475780635c616e7a14610150578063674c70991461017b5780638c32a0d31461019d57806390fef8ca146101a5578063a63234e0146101b8578063dc2f0802146101cb578063de6b6c4f146101de578063e92e92e7146101e6578063fa690beb146101f9578063fd1c881114610202575b600080fd5b6100e86100e3366004610c04565b61020b565b6040516100f9959493929190610c6c565b60405180910390f35b6008545b6040519081526020016100f9565b610127610122366004610cbc565b610358565b005b6101316105b8565b6040516100f99190610cd5565b61010660035481565b61010660045481565b61016361015e366004610cbc565b610646565b6040516001600160a01b0390911681526020016100f9565b61018e610189366004610cbc565b610670565b6040516100f993929190610cfe565b600954610106565b6101276101b3366004610ddf565b6106b3565b600054610163906001600160a01b031681565b6101276101d9366004610e42565b610823565b610131610a2e565b6101276101f4366004610cbc565b610a3b565b61010660065481565b61010660055481565b600760205260009081526040902080546001820180546001600160a01b03909216929161023790610e6e565b80601f016020809104026020016040519081016040528092919081815260200182805461026390610e6e565b80156102b05780601f10610285576101008083540402835291602001916102b0565b820191906000526020600020905b81548152906001019060200180831161029357829003601f168201915b5050505050908060020180546102c590610e6e565b80601f01602080910402602001604051908101604052809291908181526020018280546102f190610e6e565b801561033e5780601f106103135761010080835404028352916020019161033e565b820191906000526020600020905b81548152906001019060200180831161032157829003601f168201915b50505050600383015460049093015491929160ff16905085565b3260009081526007602052604090206004015460ff166103935760405162461bcd60e51b815260040161038a90610ea8565b60405180910390fd5b61039c81610ef5565b3260009081526007602052604090206003015412156104105760405162461bcd60e51b815260206004820152602a60248201527f596f75206861766520696e73756666696369656e7420706f696e747320666f726044820152691032bc31b430b733b29760b11b606482015260840161038a565b3260009081526007602052604090206003015461042d8282610f11565b32600081815260076020908152604080832060030185905580516060810182529384526002918401828152908401879052600980546001810182559352835192820260008051602061115e8339815191520180546001600160a01b039094166001600160a01b0319851681178255915185949193909284926001600160a81b0319161790600160a01b9084908111156104c8576104c8610ce8565b0217905550604082015181600101555050836004546104e79190610f11565b6004556000841215610518576104fc84610ef5565b6006600082825461050d9190610f39565b909155506105309050565b836005600082825461052a9190610f39565b90915550505b8060200151600281111561054657610546610ce8565b6000805432808352600760205260409283902085840151935191936001600160a01b03909316927fbaffff8f8621a0b119327aa1aac14e040e56d3763b2191a909c785be01b546b7926105aa9260019260029284830192840191908d908d90610fcf565b60405180910390a450505050565b600180546105c590610e6e565b80601f01602080910402602001604051908101604052809291908181526020018280546105f190610e6e565b801561063e5780601f106106135761010080835404028352916020019161063e565b820191906000526020600020905b81548152906001019060200180831161062157829003601f168201915b505050505081565b6008818154811061065657600080fd5b6000918252602090912001546001600160a01b0316905081565b6009818154811061068057600080fd5b6000918252602090912060029091020180546001909101546001600160a01b0382169250600160a01b90910460ff169083565b3260009081526007602052604090206004015460ff16156107365760405162461bcd60e51b815260206004820152603760248201527f596f75206861766520616c7265616479207265676973746572656420617320616044820152761036b2b6b132b91037b3103a343290383937b3b930b69760491b606482015260840161038a565b6040805160a0810182523280825260208083018681528385018690526000606085018190526001608086018190529381526007909252939020825181546001600160a01b0319166001600160a01b0390911617815592519192839290918201906107a0908261108b565b50604082015160028201906107b5908261108b565b50606082015160038201556080909101516004909101805491151560ff199092169190911790555050600880546001810182556000919091527ff3f7a9fe364faab93b216da50a3214154f22a0a2b415b23a84c8169e8b636ee30180546001600160a01b0319163217905550565b6000546001600160a01b031632146108945760405162461bcd60e51b815260206004820152602e60248201527f4f6e6c792069737375657220697320616c6c6f77656420746f20706572666f7260448201526d36903a3434b99030b1ba34b7b71760911b606482015260840161038a565b6001600160a01b03811660009081526007602052604081206003018054918491906108bf8385610f39565b90915550506001600160a01b0382811660008181526007602090815260408083206003015481516060810183529485529184018381529084018890526009805460018101825593528351600293840260008051602061115e833981519152018054919096166001600160a01b031982168117875591519295859490939284926001600160a81b0319161790600160a01b90849081111561096157610961610ce8565b021790555060408201518160010155505084600460008282546109849190610f39565b92505081905550846005600082825461099d9190610f39565b9091555050602081015160028111156109b8576109b8610ce8565b600080546001600160a01b038781168084526007602052604093849020868501519451919492909316927fbaffff8f8621a0b119327aa1aac14e040e56d3763b2191a909c785be01b546b792610a1f9260019260029284820192918401918d908d90610fcf565b60405180910390a45050505050565b600280546105c590610e6e565b3260009081526007602052604090206004015460ff16610a6d5760405162461bcd60e51b815260040161038a90610ea8565b32600090815260076020526040902060030154811115610ae45760405162461bcd60e51b815260206004820152602c60248201527f596f75206861766520696e73756666696369656e7420706f696e747320666f7260448201526b103932b232b6b83a34b7b71760a11b606482015260840161038a565b326000908152600760205260408120600301805491839190610b06838561114a565b90915550503260008181526007602090815260408083206003015481516060810183529485526001928501838152918501879052600980549384018155909352835160008051602061115e83398151915260029384020180546001600160a01b031981166001600160a01b039093169283178255925194959485949193909284926001600160a81b03199092161790600160a01b908490811115610bac57610bac610ce8565b02179055506040820151816001015550508360046000828254610bcf919061114a565b92505081905550836006600082825461052a9190610f39565b80356001600160a01b0381168114610bff57600080fd5b919050565b600060208284031215610c1657600080fd5b610c1f82610be8565b9392505050565b6000815180845260005b81811015610c4c57602081850181015186830182015201610c30565b506000602082860101526020601f19601f83011685010191505092915050565b6001600160a01b038616815260a060208201819052600090610c9090830187610c26565b8281036040840152610ca28187610c26565b606084019590955250509015156080909101529392505050565b600060208284031215610cce57600080fd5b5035919050565b602081526000610c1f6020830184610c26565b634e487b7160e01b600052602160045260246000fd5b6001600160a01b03841681526060810160038410610d2c57634e487b7160e01b600052602160045260246000fd5b602082019390935260400152919050565b634e487b7160e01b600052604160045260246000fd5b600082601f830112610d6457600080fd5b81356001600160401b0380821115610d7e57610d7e610d3d565b604051601f8301601f19908116603f01168101908282118183101715610da657610da6610d3d565b81604052838152866020858801011115610dbf57600080fd5b836020870160208301376000602085830101528094505050505092915050565b60008060408385031215610df257600080fd5b82356001600160401b0380821115610e0957600080fd5b610e1586838701610d53565b93506020850135915080821115610e2b57600080fd5b50610e3885828601610d53565b9150509250929050565b60008060408385031215610e5557600080fd5b82359150610e6560208401610be8565b90509250929050565b600181811c90821680610e8257607f821691505b602082108103610ea257634e487b7160e01b600052602260045260246000fd5b50919050565b6020808252601f908201527f53656e646572206e6f742072656769737465726564206173204d656d62657200604082015260600190565b634e487b7160e01b600052601160045260246000fd5b6000600160ff1b8201610f0a57610f0a610edf565b5060000390565b8082018281126000831280158216821582161715610f3157610f31610edf565b505092915050565b80820180821115610f4c57610f4c610edf565b92915050565b60008154610f5f81610e6e565b808552602060018381168015610f7c5760018114610f9657610fc4565b60ff1985168884015283151560051b880183019550610fc4565b866000528260002060005b85811015610fbc5781548a8201860152908301908401610fa1565b890184019650505b505050505092915050565b60e081526000610fe260e083018a610f52565b8281036020840152610ff4818a610f52565b905082810360408401526110088189610f52565b9050828103606084015261101c8188610f52565b6080840196909652505060a081019290925260c090910152949350505050565b601f82111561108657600081815260208120601f850160051c810160208610156110635750805b601f850160051c820191505b818110156110825782815560010161106f565b5050505b505050565b81516001600160401b038111156110a4576110a4610d3d565b6110b8816110b28454610e6e565b8461103c565b602080601f8311600181146110ed57600084156110d55750858301515b600019600386901b1c1916600185901b178555611082565b600085815260208120601f198616915b8281101561111c578886015182559484019460019091019084016110fd565b508582101561113a5787850151600019600388901b60f8161c191681555b5050505050600190811b01905550565b81810381811115610f4c57610f4c610edf56fe6e1540171b6c0c960b71a7020d9f60077f6af931a8bbf590da0223dacf75c7afa2646970667358221220a5c3ded21ebf704362d56dc0856af9e16df72ecd74fe8dc835f7b1ddd5efb7a564736f6c63430008110033",
  "linkReferences": {},
  "deployedLinkReferences": {}
}